:060F9600252D303564003A
:100F1300D3EF9400EE940040147D6E7C00ED1D70C1
:0D0F2300011CED4C70F7EF1F70E61E80E31F
:010F3000229E
:100D6500120D76ED54F0FF120D76AF05EFC454F079
:010D7500FF7E
:100D7600E4FEEEC39408748094805015C2A5EF304B
:100D8600E704D2A68002C2A6D2A5EF25E0FF0E8018
:010D9600E17B
:010D97002239
:0E0F4F00AD077FF8120D657F017E00020F13C3
:0E0F5D00AD077FFA120D657F017E00020F13B3
:100EF3007F30120F4F7F0C120F4F7F01120F4F7F66
:100F0300017E00120F137F02120F4F7F06020F4F55
:100D2F00900111EBF0A3EAF0A3E9F0120F4F90013D
:100D3F0011E0FBA3E0FAA3E0F9120A5F601790013C
:100D4F0011A3E475F001120A8AA9F0FA120A5FFFE3
:060D5F00120F5D80D92295
:050D9800900114EFF0D2
:100D9D009000DA74FFF0A3740FF0A37496F0AF0512
:100DAD00A3ECF0A3EFF07B017A01791512006890A6
:0D0DBD000114E0FF7B017A017915020D2F72
:070F7E00D2B7120F85D2B6B5
:010F85002249
:100F3100D3EF9400EE940040147D727C00ED1D709F
:0D0F4100011CED4C70F7EF1F70E61E80E301
:010F4E002280
:080F8600120F7EC2B7020F85B5
:0A0F6B00C2B7120F80D2B7020F8543
:050ECD00AF04120E7DD0
:100ED200D2B7D2B6120F8530B712900113E0C39485
:100EE200FA748094805005E004F080EBC2B6020FE1
:010EF200857A
:080F8E00120F7EC2B6020F85AE
:100E7D00E4FEEEC39408748094805018C2B6120F2D
:100E8D0085EF3392B7120F80EF25E0FFC2B6120F38
:090E9D00850E80DED2B7020F853C
:100DCA00C2B6120F85D2B7120F85E4FEEEC394089D
:100DDA00748094805017D2B6120F85EF25E0FF3049
:0D0DEA00B7034401FFC2B6120F850E80DF73
:010DF70022D9
:020DF800AB0747
:100DFA00ED60047CA280027CA0120F86120ECDAF99
:100E0A0003120E7D120ED2120F86EC04FF120E7D13
:0C0E1A00120ED2120DCA120F8E020F6BC6
:020E5200AC07EB
:100E5400EB60047AA280027AA0120F86AF02120E0F
:100E64007D120ED2120ECDAF05120E7D120ED27F60
:090E74000A7E00120F31020F6B1F
:090F750074AA2FFFE4FD020DF83F
:050F9C00B5F7CAB10029
:060B250041012000C10C9B
:100E2600E49000FFF0A3F0A3F0D2B3D2B2D2B5D2D1
:100E3600B47FDC7E05120F13120EF375900F7B0143
:0C0E46007D037F16120368E4F59080F233
:05066100900120E0FF04
:0506660090011BEFF004
:10066B007BFF7A0F799C7F9D120D2F90011BE0640D
:10067B000570147F36120F5D90011C7482F090018F
:10068B001E743BF0E4A3F090011BE0640470157F33
:10069B0035120F5D90011C7484F090011E740CF0E8
:1006AB00A37401F090011BE0640370157F34120FEB
:1006BB005D90011C748AF090011E7407F0A3740105
:1006CB00F090011BE0640270157F33120F5D9001F7
:1006DB001C7486F090011E741FF0A37401F090013E
:1006EB001BE0640170157F32120F5D90011C748842
:1006FB00F090011E740CF0A37401F090011BE070DC
:10070B00147F31120F5D90011C748CF090011E74DC
:10071B0063F0E4A3F090011CE004FF120000EFC4AF
:10072B00540F75F00AA4FFC00790011CE004FF12E0
:10073B000000EF540FFED0E02E90011DF020B2030D
:10074B00E004F020B40690011DE014F090011EE0CF
:10075B00FF90011DE0FED3EF6480F8EE64809840BB
:10076B000890011FE090011DF090011FE0FE900129
:10077B001DE0FDC3EE6480F8ED6480985002EFF04D
:10078B00E4FD7F8E12000090011CE0FFA3E0FE75DC
:10079B00F00A120A3DC454F0FDEE75F00A120A3D40
:1007AB00AEF0ED2EFD1200007D807F8E1200000258
:0207BB0000003C
:100C080020B5357F147E00120F1320B518300C154F
:100C1800900120E004F0E0C39406748094804002C0
:100C2800E4F012066120B50D200C0A7F01120F4F67
:100C3800D20C12066130B5FD20B32D7F147E001250
:100C48000F1320B30A300C07C20CE4900120F020E7
:100C5800B30B200C087F01120F4F30B3FD7F011238
:100C68000F4F12000030B3FD20B216300C137F1462
:100C78007E00120F1320B206300C0312066130B248
:100C8800FD20B416300C137F147E00120F1320B40D
:0B0C980006300C0312066130B4FD2290
:10091300BCD7D7D300D2D2B3F300B1FBD2FA00B61F
:10092300A1C3AE00CEECB3BD00B8CEE700D0C1CEBC
:10093300B400C8C9C9EA00B9EFD3CF00BCD7D0E728
:1009430000D2D2BAA500B1FBD7D300C1FA00C9DFE8
:1009530000C2ED00D1F200BAEF00BCA600B9B700A7
:10096300D6ED00CAF300C5A300BBA200CDC3002A85
:1009730000B3F5D2BB00B3F5B6FE00B3F5C800B3C0
:10098300F5CBC400B3F5CEE500B3F5C1F900B3F57B
:10099300C6DF00B3F5B0CB00B3F5BEC500B3F5CAEF
:1009A300AE00CAAED2BB00CAAEB6FE00CAAEC80025
:1009B300CAAECBC400CAAECEE500CAAEC1F900CA06
:1009C300AEC6DF00CAAEB0CB00CAAEBEC500B6FE2F
:1009D300CAAE00D8A5D2BB00D8A5B6FE00D8A5C81C
:1009E30000D8A5CBC400D8A5CEE500D8A5C1F90091
:1009F300D8A5C6DF00D8A5B0CB00D8A5BEC500C812
:100A0300CAAE00D500B6FE00C800CBC400CEE500D8
:100A1300C1F900C6DF00B0CB00BEC500CAAE00C03E
:100A2300B000001F3B5A7897B5D4F311304E000342
:0A0A33000306010406020500030596
:100B2B00602400B3FF0913FF0918FF091DFF0922F9
:100B3B00FF0927FF092CFF0930FF0935FF093AFF91
:100B4B00093FFF0944FF09496024005EFF094EFF7E
:100B5B000951FF0954FF0957FF095AFF095DFF09A6
:100B6B0060FF0963FF0966FF0969FF096CFF096FE5
:100B7B00605D0001FF0972FF0974FF0979FF097EAF
:100B8B00FF0982FF0987FF098CFF0991FF0996FF77
:100B9B00099BFF09A0FF09A5FF09AAFF09AFFF09E0
:100BAB00B3FF09B8FF09BDFF09C2FF09C7FF09CC95
:100BBB00FF09D1FF09D6FF09DBFF09E0FF09E4FFBD
:100BCB0009E9FF09EEFF09F3FF09F8FF09FDFF0A29
:100BDB000260270082FF0972FF0A06FF0A08FF0A5C
:100BEB000BFF0A0DFF0A10FF0A13FF0A16FF0A1963
:0C0BFB00FF0A1CFF0A1FFF09A5FF0A22C9
:0D07BD0090010CE0FF90010FE0FCA3E0FDB7
:1007CA00900111ECF0A3EDF0EF14B40D0040030218
:1007DA0009109007EA75F003A4C58325F0C5837351
:1007EA0002081102082402083702084A02085D02B8
:1007FA0008700208830208970208AB0208BF0208C1
:10080A00D30208E70208FB900111A3E0FF120F755B
:10081A00EF20E3037F00227F0122900111A3E0FF72
:10082A00120F75EF20E2037F00227F01229001114F
:10083A00A3E0FF120F75EF20E1037F00227F012260
:10084A00900111A3E0FF120F75EF20E0037F002251
:10085A007F0122900111A3E0FF120F75EF20E70339
:10086A007F00227F0122900111A3E0FF120F75EF92
:10087A0020E6037F00227F0122900111A3E004FFFA
:10088A00120F75EF20E5037F00227F0122900111EC
:10089A00A3E004FF120F75EF20E4037F00227F011B
:1008AA0022900111A3E004FF120F75EF20E3037FEA
:1008BA0000227F0122900111A3E004FF120F75EFBD
:1008CA0020E2037F00227F0122900111A3E004FFAE
:1008DA00120F75EF20E1037F00227F0122900111A0
:1008EA00A3E004FF120F75EF20E0037F00227F01CF
:1008FA0022900111A3E02402FF120F75EF20E703F3
:09090A007F00227F01227F002200
:0D036800900107EDF0A3EBF0900106EFF01F
:100375002463FFE433FE7C007D03120A7890010FAD
:10038500EEF0A3EFF02402FF120F75EF5460FF901B
:100395000109F0780508800103D8FD900109F09066
:1003A500010FA3E02402FF120F75EF541F90010AFD
:1003B500F0900109E064017007A3E014A3F0800840
:1003C50090010AE0241EA3F0900107E0FFFD7C00E8
:1003D500C3940A748094805006EF900A2480079095
:1003E5000107E0900A2493FF900108E0FBEF2BFF43
:1003F500E433CF24FFCF34FF90010DF0A3EFF0D30A
:10040500ED9402EC648094804016900106E054035C
:10041500700E90010EE004F0700690010DE004F0FE
:1004250090010BE0F9FF90010DE0FCA3E0FDC39FF7
:10043500EC940050030204F6ED9FFEEC940090014D
:100445000DF0A3CEF09001077401F090010CF0902F
:10045500010FE0FCA3E0FD7F011207CAEF24FF9224
:1004650009C20A900109200905741DF08003741E54
:10047500F090010FA3E0FF120F75EF54F0FF90010C
:100485000AF0780408800103D8FD90010AF0900174
:1004950009E0F9FF90010DE0FCA3E0FDC39FEC949A
:1004A500004046ED9FFEEC940090010DF0A3CEF0C8
:1004B50090010CE004F090010AE0FF900107E0B51F
:1004C5000709B20A200A0A04F08006900107E00431
:1004D500F01207BDEF24FF92099001092009057468
:1004E5001DF080AA741EF080A590010DA3E0020501
:1004F500BA90010BE0FF90010DA3E0FEC3EF9E90C3
:10050500010BF0900106E070077463F0D20B8006D2
:10051500900106E014F0900110E024FDF090010F29
:10052500E034FFF0900107740CF090010FA3E0FF99
:10053500120F75EF54F0FF90010AF078040880015E
:1005450003D8FD90010AF090010C7005740CF08041
:1005550003740DF0C20A1207BDEF24FF9209900142
:1005650009200941803A900109E0FF90010BE0FE66
:10057500D39F4036EE9FF0A3E014F0200A069001C9
:1005850007E014F090010AE0FF900107E0B50702CB
:10059500B20A1207BDEF24FF92099001092009054F
:1005A500741DF080C1741EF080BC90010BE0FF90BB
:1005B5000109E0C39F04900108F0A20BE433900009
:1005C50000F0900106E0FF9000B1F0900107E09087
:1005D50000B0F0900108E09000B2F0EF75F03C84B7
:1005E500E5F075F003A4249BF582E43400F583E07F
:1005F500FBA3E0FAA3E0F97F90120D2F9000B1E084
:1006050075F00C84E5F075F003A4245EF582E434FE
:1006150000F583E0FBA3E0FAA3E0F97F92120D2F2A
:100625009000B0E075F003A42482F582E43400F56F
:1006350083E0FBA3E0FAA3E0F97F94120D2F90006D
:10064500B2E075F003A42401F582E43400F583E0FB
:0C065500FBA3E0FAA3E0F97F96020D2F52
:03000000020CA34C
:0C0CA300787FE4F6D8FD758121020CEA90
:100A3D00C2D530F707B2D563F0FF05F030E70CB241
:100A4D00D5F4048463F0FF05F080018430D502F401
:020A5D00042271
:100A5F00BB010689828A83E0225002E722BBFE0295
:090A6F00E32289828A83E49322C8
:100A7800EF8DF0A4A8F0CF8CF0A428CE8DF0A42E92
:020A8800FE224C
:100A8A00A3F8E0C5F025F0F0E5821582700215831F
:060A9A00E0C838F0E8227C
:10000300E50824DAF582E43400F583E0050822905C
:1000130000D73007039000DAE475F001120ADF021B
:100023000A5F2000E97F2ED2008018EF540F24903E
:10003300D43440D4FF30040BEF24BFB41A00500370
:100043002461FFE50960021509050CE50C70020542
:100053000B30070E9000D7E475F001120ADFEF02B0
:100063000ACD020EA67403D2078003E4C207F50883
:100073009000D7120AF6E4F509F50BF50CE50960D3
:10008300077F2012004680F5750AFFC201C200C235
:1000930002C203C205C206C208120012FF700D306D
:1000A30007057F00120057AF0CAE0B22B4255FC2C9
:1000B300D5C204120012FF24D0B40A00501A75F0FE
:1000C3000A780930D50508B6FF0106C6A426F6202E
:1000D300D5047002D20380D924CFB41A00EF5004A0
:1000E300C2E5D204020258D20180C6D20080C0D237
:1000F3000280BCD2D580BAD20580B47F20120046DC
:100103002002077401B5090040F1120003FF120039
:1001130046020080D208D2068095120003FB12002B
:1001230003FA120003F94A4B700679297A037BFF1D
:1001330020022EE509602A7E008E82758300120A52
:10014300A060060EEE650A70F0C2D5EBC0E0EAC00F
:10015300E0E9C0E0EE12029FD0E0F9D0E0FAD0E08F
:10016300FB120A5FFF60AAEBC0E0EAC0E0E9C0E06F
:10017300120046D0E02401F9D0E03400FAD0E0FBCD
:10018300E50A0460DCD50AD980877BFF7A02799B74
:10019300D202809C791080027908C206C2088008C6
:1001A300D2D5790A8004790AC2D5E50A047002F52A
:1001B3000AE4FAFDFEFF120003FC7B082001131280
:1001C3000003FD7B1030000A120003FE120003FF40
:1001D3007B20EC3382D592D55013C3E43000069FC5
:1001E300FFE49EFEE42001039DFDE49CFCE4CBF8C8
:1001F300C201EC700CCFCECDCCE824F8F870F380BC
:1002030017C3EF33FFEE33FEED33FDEC33FCEB337B
:10021300FB994002FB0FD8E9EB300105F8D0E0C4AD
:1002230048B201C0E00AEC4D4E4F78207B0070C20B
:10023300EAB50A0040BCC0E01202A1D0F0D0E02031
:100243000104C4C0E0C4B201C0F012002FD0F0D545
:10025300F0EB020080120AFF011D5301975800EED4
:100263004C00EA42019B4F01A34401A3490103430C
:0802730001A955018D46018D22
:10027B0045018D4703495000F22D00F62E01192B35
:10028B0000FA2301172003322A00B24800000111A3
:10029B003F3F3F00790AA2D5200314300509B9105E
:1002AB00020404B9080104A2D5200602500104205F
:1002BB0002689202B509005034C0E07F2030031968
:1002CB007F30A20272067205500F1202F8C202C2F0
:1002DB0006C205C2087F30800F300503E9C0E0126B
:1002EB000046300503D0E0F9D0E0B509CC30051756
:1002FB007F30B9100C1200467F583004077F78808E
:10030B0003B908031200463002057F2D0200467F19
:10031B00202008F87F2B2006F322920280CF286E34
:10032B00756C6C2900D2011200033001F8C2017800
:10033B000930D50108F60200B22D5043495812007E
:10034B00032403B405004001E490034493120037E7
:0D035B00743A120037D203750904020197AD
:100CAF00020E26E493A3F8E493A34003F68001F227
:100CBF0008DFF48029E493A3F85407240CC8C33346
:100CCF00C4540F4420C8834004F456800146F6DF15
:100CDF00E4800B0102040810204080900B25E47E75
:100CEF00019360BCA3FF543F30E509541FFEE4930A
:100CFF00A360010ECF54C025E060A840B8E493A3D1
:100D0F00FAE493A3F8E493A3C8C582C8CAC583CAFB
:100D1F00F0A3C8C582C8CAC583CADFE9DEE780BEB3
:010C070000EC
:100AA000BB010CE58229F582E5833AF583E022500B
:100AB00006E92582F8E622BBFE06E92582F8E22255
:0D0AC000E58229F582E5833AF583E493226F
:100ACD00BB010689828A83F0225002F722BBFE0108
:020ADD00F32202
:100ADF00F8E0FBA3A3E0F925F0F0E58215827002A0
:070AEF001583E0FA38F02244
:090AF600EBF0A3EAF0A3E9F02201
:100AFF00D083D082F8E4937012740193700DA3A386
:100B0F0093F8740193F5828883E473740293686099
:060B1F00EFA3A3A380DF99
:100EA600EFB40A07740D120EB1740A309811A8999E
:100EB600B8130CC2983098FDA899C298B811F630AC
:070EC60099FDC299F5992284
:00000001FF
